:020000040000FA
:020000001828BE
:08000800FD000308FE000A08D8
:10001000FF00000023140C1083308F00AF308E00DF
:10002000A70A7F088A007E088300FD0E7D0E090066
:1000300083120313C0308B008312031331309000FE
:10004000831203138C018316031301308C00831277
:1000500003130C103C308F00AF308E008312031757
:100060009E01831203179F018316031386018316D3
:10007000031387018312031387010130A500231C9A
:100080003F282310271D3F28A7012508013A0319FF
:100090007028831203132508023A03197A282508C9
:1000A000033A031983282508043A03198C282508E4
:1000B000053A031995282508063A03199E282508AC
:1000C000073A0319A7282508083A0319B028250874
:1000D000093A0319B92825080A3A0319C3284528FB
:1000E0008601831203138030A400240887000230A5
:1000F000A500CD28831203134030A40024088700F4
:100100000330A500CD28831203132030A400240857
:1001100087000430A500CD28831203131030A400FB
:10012000240887000530A500CD288312031308306A
:10013000A400240887000630A500CD2883120313ED
:100140000430A400240887000730A500CD288312BE
:1001500003130230A400240887000830A500CD282E
:10016000831203130130A400240887000930A5007E
:10017000CD288312031387012030A60026088600AD
:100180000A30A500CD288312031386011030A60083
:0C019000260886000130A500CD283F287D
:02400E00E4309C
:084200000100020003000400AC
:00000001FF
